{
  "contractName": "Oracle",
  "abi": [
    {
      "inputs": [],
      "stateMutability": "nonpayable",
      "type": "constructor"
    },
    {
      "anonymous": false,
      "inputs": [],
      "name": "__callbackNewData",
      "type": "event"
    },
    {
      "inputs": [],
      "name": "numMeteoritos",
      "outputs": [
        {
          "internalType": "uint256",
          "name": "",
          "type": "uint256"
        }
      ],
      "stateMutability": "view",
      "type": "function",
      "constant": true
    },
    {
      "inputs": [],
      "name": "update",
      "outputs": [],
      "stateMutability": "nonpayable",
      "type": "function"
    },
    {
      "inputs": [
        {
          "internalType": "uint256",
          "name": "__num",
          "type": "uint256"
        }
      ],
      "name": "setNumMeteoritos",
      "outputs": [],
      "stateMutability": "nonpayable",
      "type": "function"
    }
  ],
  "bytecode": "0x608060405234801561000f575f80fd5b50335f806101000a81548173ffffffffffffffffffffffffffffffffffffffff021916908373ffffffffffffffffffffffffffffffffffffffff1602179055506103178061005c5f395ff3fe608060405234801561000f575f80fd5b506004361061003f575f3560e01c8063a2e6204514610043578063a8e803691461004d578063efa28ee714610069575b5f80fd5b61004b610087565b005b61006760048036038101906100629190610216565b610142565b005b6100716101d9565b60405161007e9190610250565b60405180910390f35b5f8054906101000a900473ffffffffffffffffffffffffffffffffffffffff1673ffffffffffffffffffffffffffffffffffffffff163373ffffffffffffffffffffffffffffffffffffffff1614610114576040517f08c379a000000000000000000000000000000000000000000000000000000000815260040161010b906102c3565b60405180910390fd5b7f2bfb84d8e96bf2a06daf6ebca52197c6c24fcd7c9c9c1f434c3bc9e59a92f1c160405160405180910390a1565b5f8054906101000a900473ffffffffffffffffffffffffffffffffffffffff1673ffffffffffffffffffffffffffffffffffffffff163373ffffffffffffffffffffffffffffffffffffffff16146101cf576040517f08c379a00000000000000000000000000000000000000000000000000000000081526004016101c6906102c3565b60405180910390fd5b8060018190555050565b60015481565b5f80fd5b5f819050919050565b6101f5816101e3565b81146101ff575f80fd5b50565b5f81359050610210816101ec565b92915050565b5f6020828403121561022b5761022a6101df565b5b5f61023884828501610202565b91505092915050565b61024a816101e3565b82525050565b5f6020820190506102635f830184610241565b92915050565b5f82825260208201905092915050565b7f43616c6c6572206973206e6f74206f776e6572000000000000000000000000005f82015250565b5f6102ad601383610269565b91506102b882610279565b602082019050919050565b5f6020820190508181035f8301526102da816102a1565b905091905056fea264697066735822122015d45b7338a0c376db2c36775a99bb3b1de56a7fc7e8fba49670ce07b6c3542064736f6c63430008150033",
  "immutableReferences": {},
  "source": "// SPDX-License-Identifier: MIT\npragma solidity >=0.8.0;\n\ncontract Oracle {\n\n  address  owner;\n  uint public numMeteoritos;\n\n  event __callbackNewData();\n\n  constructor() public {       \n       owner = msg.sender; // 'msg.sender' is sender of current call, contract deployer for a constructor       \n  }\n\n     // modifier to check if caller is owner\n    modifier isOwner() {\n        require(msg.sender == owner, \"Caller is not owner\");\n        _;\n    }\n      \n    function update() public isOwner {\n      emit   __callbackNewData();\n    }\n\n    function setNumMeteoritos(uint __num) public  isOwner() {\n      numMeteoritos = __num;\n    }\n}\n",
  "sourcePath": "/home/aumeli74/dev/dapps/Oracle/contracts/Oracle.sol",
  "compiler": {
    "name": "solc",
    "version": "0.8.21+commit.d9974bed.Emscripten.clang"
  },
  "schemaVersion": "3.4.16",
  "updatedAt": "2024-09-14T20:03:35.073Z",
  "networkType": "ethereum",
  "devdoc": {
    "kind": "dev",
    "methods": {},
    "version": 1
  },
  "userdoc": {
    "kind": "user",
    "methods": {},
    "version": 1
  }
}